{
  "contractName": "Wallet",
  "abi": [
    {
      "inputs": [
        {
          "internalType": "address[]",
          "name": "_approvers",
          "type": "address[]"
        },
        {
          "internalType": "uint256",
          "name": "_quorum",
          "type": "uint256"
        }
      ],
      "payable": false,
      "stateMutability": "nonpayable",
      "type": "constructor"
    },
    {
      "constant": true,
      "inputs": [
        {
          "internalType": "address",
          "name": "",
          "type": "address"
        },
        {
          "internalType": "uint256",
          "name": "",
          "type": "uint256"
        }
      ],
      "name": "approvals",
      "outputs": [
        {
          "internalType": "bool",
          "name": "",
          "type": "bool"
        }
      ],
      "payable": false,
      "stateMutability": "view",
      "type": "function"
    },
    {
      "constant": true,
      "inputs": [
        {
          "internalType": "uint256",
          "name": "",
          "type": "uint256"
        }
      ],
      "name": "approvers",
      "outputs": [
        {
          "internalType": "address",
          "name": "",
          "type": "address"
        }
      ],
      "payable": false,
      "stateMutability": "view",
      "type": "function"
    },
    {
      "constant": true,
      "inputs": [],
      "name": "quorum",
      "outputs": [
        {
          "internalType": "uint256",
          "name": "",
          "type": "uint256"
        }
      ],
      "payable": false,
      "stateMutability": "view",
      "type": "function"
    },
    {
      "constant": true,
      "inputs": [
        {
          "internalType": "uint256",
          "name": "",
          "type": "uint256"
        }
      ],
      "name": "transfers",
      "outputs": [
        {
          "internalType": "uint256",
          "name": "id",
          "type": "uint256"
        },
        {
          "internalType": "uint256",
          "name": "amount",
          "type": "uint256"
        },
        {
          "internalType": "address payable",
          "name": "to",
          "type": "address"
        },
        {
          "internalType": "uint256",
          "name": "approvals",
          "type": "uint256"
        },
        {
          "internalType": "bool",
          "name": "sent",
          "type": "bool"
        }
      ],
      "payable": false,
      "stateMutability": "view",
      "type": "function"
    },
    {
      "constant": true,
      "inputs": [],
      "name": "getApprovers",
      "outputs": [
        {
          "internalType": "address[]",
          "name": "",
          "type": "address[]"
        }
      ],
      "payable": false,
      "stateMutability": "view",
      "type": "function"
    },
    {
      "constant": true,
      "inputs": [],
      "name": "getTransfers",
      "outputs": [
        {
          "components": [
            {
              "internalType": "uint256",
              "name": "id",
              "type": "uint256"
            },
            {
              "internalType": "uint256",
              "name": "amount",
              "type": "uint256"
            },
            {
              "internalType": "address payable",
              "name": "to",
              "type": "address"
            },
            {
              "internalType": "uint256",
              "name": "approvals",
              "type": "uint256"
            },
            {
              "internalType": "bool",
              "name": "sent",
              "type": "bool"
            }
          ],
          "internalType": "struct Wallet.Transfer[]",
          "name": "",
          "type": "tuple[]"
        }
      ],
      "payable": false,
      "stateMutability": "view",
      "type": "function"
    },
    {
      "constant": false,
      "inputs": [
        {
          "internalType": "uint256",
          "name": "amount",
          "type": "uint256"
        },
        {
          "internalType": "address payable",
          "name": "to",
          "type": "address"
        }
      ],
      "name": "createTransfer",
      "outputs": [],
      "payable": false,
      "stateMutability": "nonpayable",
      "type": "function"
    },
    {
      "constant": false,
      "inputs": [
        {
          "internalType": "uint256",
          "name": "id",
          "type": "uint256"
        }
      ],
      "name": "approveTransfer",
      "outputs": [],
      "payable": false,
      "stateMutability": "nonpayable",
      "type": "function"
    },
    {
      "constant": false,
      "inputs": [],
      "name": "receive",
      "outputs": [],
      "payable": true,
      "stateMutability": "payable",
      "type": "function"
    }
  ],
  "bytecode": "0x60806040523480156200001157600080fd5b5060405162001336380380620013368339818101604052620000379190810190620001ef565b81600090805190602001906200004f9291906200005f565b5080600181905550505062000312565b828054828255906000526020600020908101928215620000db579160200282015b82811115620000da5782518260006101000a81548173ffffffffffffffffffffffffffffffffffffffff021916908373ffffffffffffffffffffffffffffffffffffffff1602179055509160200191906001019062000080565b5b509050620000ea9190620000ee565b5090565b6200013191905b808211156200012d57600081816101000a81549073ffffffffffffffffffffffffffffffffffffffff021916905550600101620000f5565b5090565b90565b6000815190506200014581620002de565b92915050565b600082601f8301126200015d57600080fd5b8151620001746200016e8262000277565b62000249565b915081818352602084019350602081019050838560208402820111156200019a57600080fd5b60005b83811015620001ce5781620001b3888262000134565b8452602084019350602083019250506001810190506200019d565b5050505092915050565b600081519050620001e981620002f8565b92915050565b600080604083850312156200020357600080fd5b600083015167ffffffffffffffff8111156200021e57600080fd5b6200022c858286016200014b565b92505060206200023f85828601620001d8565b9150509250929050565b6000604051905081810181811067ffffffffffffffff821117156200026d57600080fd5b8060405250919050565b600067ffffffffffffffff8211156200028f57600080fd5b602082029050602081019050919050565b6000620002ad82620002b4565b9050919050565b600073ffffffffffffffffffffffffffffffffffffffff82169050919050565b6000819050919050565b620002e981620002a0565b8114620002f557600080fd5b50565b6200030381620002d4565b81146200030f57600080fd5b50565b61101480620003226000396000f3fe6080604052600436106100865760003560e01c80639377d711116100595780639377d71114610135578063a3e76c0f14610176578063cacca4a014610180578063d3650fb8146101a9578063ffabc673146101e657610086565b80631703a0181461008b5780632f65142c146100b65780634c12fa47146100e15780636cb3e8ef1461010a575b600080fd5b34801561009757600080fd5b506100a0610223565b6040516100ad9190610e41565b60405180910390f35b3480156100c257600080fd5b506100cb610229565b6040516100d89190610da4565b60405180910390f35b3480156100ed57600080fd5b5061010860048036036101039190810190610a9f565b610317565b005b34801561011657600080fd5b5061011f6104f4565b60405161012c9190610d82565b60405180910390f35b34801561014157600080fd5b5061015c60048036036101579190810190610a76565b610582565b60405161016d959493929190610e5c565b60405180910390f35b61017e6105f2565b005b34801561018c57600080fd5b506101a760048036036101a29190810190610a76565b6105f4565b005b3480156101b557600080fd5b506101d060048036036101cb9190810190610a76565b610990565b6040516101dd9190610d67565b60405180910390f35b3480156101f257600080fd5b5061020d60048036036102089190810190610a3a565b6109cc565b60405161021a9190610dc6565b60405180910390f35b60015481565b60606002805480602002602001604051908101604052809291908181526020016000905b8282101561030e57838290600052602060002090600502016040518060a001604052908160008201548152602001600182015481526020016002820160009054906101000a900473ffffffffffffffffffffffffffffffffffffffff1673ffffffffffffffffffffffffffffffffffffffff1673ffffffffffffffffffffffffffffffffffffffff168152602001600382015481526020016004820160009054906101000a900460ff1615151515815250508152602001906001019061024d565b50505050905090565b600080905060008090505b6000805490508110156103ac573373ffffffffffffffffffffffffffffffffffffffff166000828154811061035357fe5b9060005260206000200160009054906101000a900473ffffffffffffffffffffffffffffffffffffffff1673ffffffffffffffffffffffffffffffffffffffff16141561039f57600191505b8080600101915050610322565b5060011515811515146103f4576040517f08c379a00000000000000000000000000000000000000000000000000000000081526004016103eb90610e01565b60405180910390fd5b60026040518060a0016040528060028054905081526020018581526020018473ffffffffffffffffffffffffffffffffffffffff168152602001600081526020016000151581525090806001815401808255809150509060018203906000526020600020906005020160009091929091909150600082015181600001556020820151816001015560408201518160020160006101000a81548173ffffffffffffffffffffffffffffffffffffffff021916908373ffffffffffffffffffffffffffffffffffffffff1602179055506060820151816003015560808201518160040160006101000a81548160ff021916908315150217905550505050505050565b6060600080548060200260200160405190810160405280929190818152602001828054801561057857602002820191906000526020600020905b8160009054906101000a900473ffffffffffffffffffffffffffffffffffffffff1673ffffffffffffffffffffffffffffffffffffffff168152602001906001019080831161052e575b5050505050905090565b6002818154811061058f57fe5b90600052602060002090600502016000915090508060000154908060010154908060020160009054906101000a900473ffffffffffffffffffffffffffffffffffffffff16908060030154908060040160009054906101000a900460ff16905085565b565b600080905060008090505b600080549050811015610689573373ffffffffffffffffffffffffffffffffffffffff166000828154811061063057fe5b9060005260206000200160009054906101000a900473ffffffffffffffffffffffffffffffffffffffff1673ffffffffffffffffffffffffffffffffffffffff16141561067c57600191505b80806001019150506105ff565b5060011515811515146106d1576040517f08c379a00000000000000000000000000000000000000000000000000000000081526004016106c890610e01565b60405180910390fd5b60001515600283815481106106e257fe5b906000526020600020906005020160040160009054906101000a900460ff16151514610743576040517f08c379a000000000000000000000000000000000000000000000000000000000815260040161073a90610de1565b60405180910390fd5b60001515600360003373ffffffffffffffffffffffffffffffffffffffff1673ffffffffffffffffffffffffffffffffffffffff168152602001908152602001600020600084815260200190815260200160002060009054906101000a900460ff161515146107e7576040517f08c379a00000000000000000000000000000000000000000000000000000000081526004016107de90610e21565b60405180910390fd5b6001600360003373ffffffffffffffffffffffffffffffffffffffff1673ffffffffffffffffffffffffffffffffffffffff168152602001908152602001600020600084815260200190815260200160002060006101000a81548160ff0219169083151502179055506002828154811061085d57fe5b9060005260206000209060050201600301600081548092919060010191905055506001546002838154811061088e57fe5b9060005260206000209060050201600301541061098c576001600283815481106108b457fe5b906000526020600020906005020160040160006101000a81548160ff0219169083151502179055506000600283815481106108eb57fe5b906000526020600020906005020160020160009054906101000a900473ffffffffffffffffffffffffffffffffffffffff16905060006002848154811061092e57fe5b90600052602060002090600502016001015490508173ffffffffffffffffffffffffffffffffffffffff166108fc829081150290604051600060405180830381858888f19350505050158015610988573d6000803e3d6000fd5b5050505b5050565b6000818154811061099d57fe5b906000526020600020016000915054906101000a900473ffffffffffffffffffffffffffffffffffffffff1681565b60036020528160005260406000206020528060005260406000206000915091509054906101000a900460ff1681565b600081359050610a0a81610f8c565b92915050565b600081359050610a1f81610fa3565b92915050565b600081359050610a3481610fba565b92915050565b60008060408385031215610a4d57600080fd5b6000610a5b858286016109fb565b9250506020610a6c85828601610a25565b9150509250929050565b600060208284031215610a8857600080fd5b6000610a9684828501610a25565b91505092915050565b60008060408385031215610ab257600080fd5b6000610ac085828601610a25565b9250506020610ad185828601610a10565b9150509250929050565b6000610ae78383610b29565b60208301905092915050565b6000610aff8383610ce1565b60a08301905092915050565b610b1481610f44565b82525050565b610b2381610f44565b82525050565b610b3281610f32565b82525050565b610b4181610f32565b82525050565b6000610b5282610ecf565b610b5c8185610eff565b9350610b6783610eaf565b8060005b83811015610b98578151610b7f8882610adb565b9750610b8a83610ee5565b925050600181019050610b6b565b5085935050505092915050565b6000610bb082610eda565b610bba8185610f10565b9350610bc583610ebf565b8060005b83811015610bf6578151610bdd8882610af3565b9750610be883610ef2565b925050600181019050610bc9565b5085935050505092915050565b610c0c81610f56565b82525050565b610c1b81610f56565b82525050565b6000610c2e601e83610f21565b91507f7472616e736665722068617320616c7265616479206265656e2073656e7400006000830152602082019050919050565b6000610c6e601583610f21565b91507f6f6e6c7920617070726f76657220616c6c6f77656400000000000000000000006000830152602082019050919050565b6000610cae601d83610f21565b91507f63616e6e6f7420617070726f7665207472616e736665722074776963650000006000830152602082019050919050565b60a082016000820151610cf76000850182610d49565b506020820151610d0a6020850182610d49565b506040820151610d1d6040850182610b0b565b506060820151610d306060850182610d49565b506080820151610d436080850182610c03565b50505050565b610d5281610f82565b82525050565b610d6181610f82565b82525050565b6000602082019050610d7c6000830184610b38565b92915050565b60006020820190508181036000830152610d9c8184610b47565b905092915050565b60006020820190508181036000830152610dbe8184610ba5565b905092915050565b6000602082019050610ddb6000830184610c12565b92915050565b60006020820190508181036000830152610dfa81610c21565b9050919050565b60006020820190508181036000830152610e1a81610c61565b9050919050565b60006020820190508181036000830152610e3a81610ca1565b9050919050565b6000602082019050610e566000830184610d58565b92915050565b600060a082019050610e716000830188610d58565b610e7e6020830187610d58565b610e8b6040830186610b1a565b610e986060830185610d58565b610ea56080830184610c12565b9695505050505050565b6000819050602082019050919050565b6000819050602082019050919050565b600081519050919050565b600081519050919050565b6000602082019050919050565b6000602082019050919050565b600082825260208201905092915050565b600082825260208201905092915050565b600082825260208201905092915050565b6000610f3d82610f62565b9050919050565b6000610f4f82610f62565b9050919050565b60008115159050919050565b600073ffffffffffffffffffffffffffffffffffffffff82169050919050565b6000819050919050565b610f9581610f32565b8114610fa057600080fd5b50565b610fac81610f44565b8114610fb757600080fd5b50565b610fc381610f82565b8114610fce57600080fd5b5056fea365627a7a72315820d1724292c6afadab1ec438d40b04c196f6d37c3b3b0a3d95784148b74d3fbc5d6c6578706572696d656e74616cf564736f6c63430005100040",
  "source": "// SPDX-License-Identifier: GPL-3.0\n\npragma solidity >= 0.4.0 < 0.9.0;\npragma experimental ABIEncoderV2;\n\ncontract Wallet {\n\n    address[] public approvers;\n    uint public quorum;\n    struct Transfer {\n        uint id;\n        uint amount;\n        address payable to;\n        uint approvals;\n        bool sent;\n    }\n\n    Transfer[] public transfers;\n    mapping(address => mapping(uint => bool)) public approvals;\n\n\n    constructor(address[] memory _approvers, uint _quorum) public  {\n        approvers = _approvers;\n        quorum = _quorum;\n    }\n\n    function getApprovers() external view returns(address[] memory) {\n        return approvers;\n    }\n\n    function getTransfers() external view returns(Transfer[] memory) {\n        return transfers;\n    }\n\n    function createTransfer(uint amount, address payable to) external onlyApprover() {\n        transfers.push(Transfer(\n            transfers.length,\n            amount,\n            to,\n            0,\n            false\n        ));\n    }\n\n    function approveTransfer(uint id) external onlyApprover() {\n        require(transfers[id].sent == false, 'transfer has already been sent');\n        require(approvals[msg.sender][id] == false, 'cannot approve transfer twice');\n\n        approvals[msg.sender][id] = true;\n        transfers[id].approvals++;\n\n        if(transfers[id].approvals >= quorum) {\n            transfers[id].sent = true;\n            address payable to = transfers[id].to;\n            uint amount = transfers[id].amount;\n            to.transfer(amount);\n        }\n    }\n\n   function receive() external payable {}\n\n    modifier onlyApprover() {\n        bool allowed = false;\n        for(uint i = 0; i < approvers.length; i++) {\n            if(approvers[i] == msg.sender) {\n                allowed = true;\n            }\n        }\n        require(allowed == true, 'only approver allowed');\n        _;\n    }\n}\n\n",
  "sourcePath": "/Users/mani/wallet/contracts/Wallet.sol",
  "compiler": {
    "name": "solc",
    "version": "0.5.16+commit.9c3226ce.Emscripten.clang"
  },
  "schemaVersion": "3.4.3",
  "updatedAt": "2021-12-07T01:56:26.507Z",
  "devdoc": {
    "methods": {}
  },
  "userdoc": {
    "methods": {}
  }
}